:020000040800F2
:1000000000000220AD2200088D2100089321000885
:10001000992100089F210008A52100080000000088
:10002000000000000000000000000000AB210008FC
:10003000B921000800000000C7210008D5210008F0
:10004000FD220008FD220008FD220008FD22000814
:10005000FD220008FD220008FD220008FD22000804
:10006000FD220008FD220008FD220008FD220008F4
:10007000FD220008FD220008FD220008FD220008E4
:10008000FD220008FD220008FD220008FD220008D4
:10009000FD220008FD220008FD220008FD220008C4
:1000A000FD220008FD220008FD220008FD220008B4
:1000B000FD220008E1210008FD220008FD220008C1
:1000C000FD220008FD220008FD220008FD22000894
:1000D000FD220008FD220008F5210008FD2200088D
:1000E000FD220008FD220008FD220008FD22000874
:1000F000FD220008FD22000809220008FD22000858
:10010000FD220008FD220008FD220008FD22000853
:10011000FD220008FD220008FD220008FD22000843
:10012000FD220008FD220008FD220008FD22000833
:10013000FD220008FD220008FD220008FD22000823
:10014000FD220008FD220008FD220008FD22000813
:10015000FD220008FD220008FD220008FD22000803
:10016000FD220008FD220008FD220008FD220008F3
:10017000FD220008FD220008FD220008000000000A
:08018000FD220008FD22000829
:1001900010B5054C237833B9044B13B10448AFF3C1
:1001A00000800123237010BD8800002000000000A3
:1001B0004C61000808B5034B1BB103490348AFF37A
:1001C000008008BD000000008C0000204C61000889
:1001D00001F0FF01102A2BDB10F0070F08D010F8F8
:1001E000013B013A8B422DD010F0070F42B3F6D1FC
:1001F000F0B441EA012141EA014122F007047FF015
:1002000000070023F0E80256083C85EA010586EA6B
:10021000010685FA47F5A3FA87F586FA47F6A5FAA7
:1002200087F68EB9EED1F0BC01F0FF0102F00702B3
:1002300032B110F8013B013A83EA010313B1F8D15E
:100240000020704701387047002D06BF354603383F
:10025000073815F0010F07D1013015F4807F02BF78
:10026000013015F4C03F0130F0BC0138704700BFC9
:1002700081F0004102E000BF83F0004330B54FEA57
:1002800041044FEA430594EA050F08BF90EA020FC4
:100290001FBF54EA000C55EA020C7FEA645C7FEA57
:1002A000655C00F0E2804FEA5454D4EB5555B8BF7A
:1002B0006D420CDD2C4480EA020281EA030382EAEB
:1002C000000083EA010180EA020281EA0303362D7D
:1002D00088BF30BD11F0004F4FEA01314FF4801C50
:1002E0004CEA113102D0404261EB410113F0004F62
:1002F0004FEA03334CEA133302D0524263EB430319
:1003000094EA050F00F0A780A4F10104D5F1200EB6
:100310000DDB02FA0EFC22FA05F2801841F1000111
:1003200003FA0EF2801843FA05F359410EE0A5F1E5
:1003300020050EF1200E012A03FA0EFC28BF4CF016
:10034000020C43FA05F3C01851EBE37101F00045CC
:1003500007D54FF0000EDCF1000C7EEB00006EEBD9
:100360000101B1F5801F1BD3B1F5001F0CD3490863
:100370005FEA30004FEA3C0C04F101044FEA4452BA
:1003800012F5800F80F09A80BCF1004F08BF5FEA41
:10039000500C50F1000041EB045141EA050130BD21
:1003A0005FEA4C0C404141EB0101013C28BFB1F533
:1003B000801FE9D291F0000F04BF01460020B1FA7E
:1003C00081F308BF2033A3F10B03B3F120020CDA51
:1003D0000C3208DD02F1140CC2F10C0201FA0CF02F
:1003E00021FA02F10CE002F11402D8BFC2F1200C94
:1003F00001FA02F120FA0CFCDCBF41EA0C0190404A
:10040000E41AA2BF01EB0451294330BD6FEA040492
:100410001F3C1CDA0C340EDC04F11404C4F120027D
:1004200020FA04F001FA02F340EA030021FA04F38F
:1004300045EA030130BDC4F10C04C4F1200220FAE6
:1004400002F001FA04F340EA0300294630BD21FA24
:1004500004F0294630BD94F0000F83F4801306BFEA
:1004600081F480110134013D4EE77FEA645C18BFDE
:100470007FEA655C29D094EA050F08BF90EA020F75
:1004800005D054EA000C04BF1946104630BD91EA6D
:10049000030F1EBF0021002030BD5FEA545C05D170
:1004A0004000494128BF41F0004130BD14F58004AF
:1004B0003CBF01F5801130BD01F0004545F0FE4123
:1004C00041F470014FF0000030BD7FEA645C1ABF58
:1004D000194610467FEA655C1CBF0B46024650EA8F
:1004E000013406BF52EA033591EA030F41F40021BB
:1004F00030BD00BF90F0000F04BF0021704730B541
:100500004FF4806404F132044FF000054FF0000115
:1005100050E700BF90F0000F04BF0021704730B5D6
:100520004FF4806404F1320410F0004548BF4042AB
:100530004FF000013EE700BF42004FEAE2014FEA00
:1005400031014FEA02701FBF12F07F4393F07F4FDB
:1005500081F06051704732F07F4208BF704793F0DE
:100560007F4F04BF41F40021704730B54FF46074F1
:1005700001F0004521F000411CE700BF50EA0102F4
:1005800008BF704730B54FF000050AE050EA01029D
:1005900008BF704730B511F0004502D5404261EB0D
:1005A00041014FF4806404F132045FEA915C3FF44E
:1005B000D8AE4FF003025FEADC0C18BF03325FEAEB
:1005C000DC0C18BF033202EBDC02C2F1200300FA9C
:1005D00003FC20FA02F001FA03FE40EA0E0021FAC1
:1005E00002F11444BDE600BF70B54FF0FF0C4CF4AF
:1005F000E06C1CEA11541DBF1CEA135594EA0C0F61
:1006000095EA0C0F00F0DEF82C4481EA030621EA9B
:100610004C5123EA4C5350EA013518BF52EA0335D6
:1006200041F4801143F4801338D0A0FB02CE4FF088
:100630000005E1FB02E506F00042E0FB03E54FF0B8
:100640000006E1FB03569CF0000F18BF4EF0010EB0
:10065000A4F1FF04B6F5007F64F5407404D25FEAAC
:100660004E0E6D4146EB060642EAC62141EA55515F
:100670004FEAC52040EA5E504FEACE2EB4F1FD0CA1
:1006800088BFBCF5E06F1ED8BEF1004F08BF5FEA1F
:10069000500E50F1000041EB045170BD06F00046D1
:1006A00046EA010140EA020081EA0301B4EB5C047E
:1006B000C2BFD4EB0C0541EA045170BD41F4801176
:1006C0004FF0000E013C00F3AB8014F1360FDEBF9B
:1006D000002001F0004170BDC4F10004203C35DA77
:1006E0000C341BDC04F11404C4F1200500FA05F3FA
:1006F00020FA04F001FA05F240EA020001F000429B
:1007000021F0004110EBD37021FA04F642EB060110
:100710005EEA430E08BF20EAD37070BDC4F10C043A
:10072000C4F1200500FA04F320FA05F001FA04F2FE
:1007300040EA020001F0004110EBD37041F10001EA
:100740005EEA430E08BF20EAD37070BDC4F12005F5
:1007500000FA05F24EEA020E20FA04F301FA05F25D
:1007600043EA020321FA04F001F0004121FA04F205
:1007700020EA020000EBD3705EEA430E08BF20EAD5
:10078000D37070BD94F0000F0FD101F0004640000F
:1007900041EB010111F4801F08BF013CF7D041EA91
:1007A000060195F0000F18BF704703F00046520095
:1007B00043EB030313F4801F08BF013DF7D043EA66
:1007C0000603704794EA0C0F0CEA135518BF95EA1C
:1007D0000C0F0CD050EA410618BF52EA4306D1D1A3
:1007E00081EA030101F000414FF0000070BD50EAC2
:1007F000410606BF1046194652EA430619D094EA4C
:100800000C0F02D150EA013613D195EA0C0F05D135
:1008100052EA03361CBF104619460AD181EA030189
:1008200001F0004141F0FE4141F470014FF0000041
:1008300070BD41F0FE4141F4780170BD70B54FF0DC
:10084000FF0C4CF4E06C1CEA11541DBF1CEA13555C
:1008500094EA0C0F95EA0C0F00F0A7F8A4EB05043E
:1008600081EA030E52EA03354FEA013100F0888035
:100870004FEA03334FF0805545EA131343EA1263FE
:100880004FEA022245EA111545EA10654FEA0026B3
:100890000EF000419D4208BF964244F1FD0404F56C
:1008A000407402D25B084FEA3202B61A65EB0305C8
:1008B0005B084FEA32024FF480104FF4002CB6EB85
:1008C000020E75EB030E22BFB61A754640EA0C0005
:1008D0005B084FEA3202B6EB020E75EB030E22BF45
:1008E000B61A754640EA5C005B084FEA3202B6EB86
:1008F000020E75EB030E22BFB61A754640EA9C0045
:100900005B084FEA3202B6EB020E75EB030E22BF14
:10091000B61A754640EADC0055EA060E18D04FEAD2
:10092000051545EA16754FEA06164FEAC30343EA72
:1009300052734FEAC2025FEA1C1CC0D111F4801F3F
:100940000BD141EA00014FF000004FF0004CB6E738
:1009500011F4801F04BF01430020B4F1FD0C88BFD7
:10096000BCF5E06F3FF6AFAEB5EB030C04BFB6EBE2
:10097000020C5FEA500C50F1000041EB045170BDD5
:100980000EF0004E4EEA113114EB5C04C2BFD4EB02
:100990000C0541EA045170BD41F480114FF0000E86
:1009A000013C90E645EA060E8DE60CEA135594EA02
:1009B0000C0F08BF95EA0C0F3FF43BAF94EA0C0F05
:1009C0000AD150EA01347FF434AF95EA0C0F7FF47A
:1009D00025AF104619462CE795EA0C0F06D152EACE
:1009E00003353FF4FDAE1046194622E750EA4106B2
:1009F00018BF52EA43067FF4C5AE50EA41047FF4C3
:100A00000DAF52EA43057FF4EBAE12E74FF0FF3C27
:100A100006E000BF4FF0010C02E000BF4FF0010CF8
:100A20004DF804CD4FEA410C7FEA6C5C4FEA430C71
:100A300018BF7FEA6C5C1BD001B050EA410C0CBFC0
:100A400052EA430C91EA030F02BF90EA020F002022
:100A5000704710F1000F91EA030F58BF994208BF89
:100A600090422CBFD8176FEAE37040F00100704746
:100A70004FEA410C7FEA6C5C02D150EA013C07D19D
:100A80004FEA430C7FEA6C5CD6D152EA033CD3D0E8
:100A90005DF8040B704700BF8446104662468C46E2
:100AA0001946634600E000BF01B5FFF7B7FF002815
:100AB00048BF10F1000F01BD4DF808EDFFF7F4FF3E
:100AC0000CBF012000205DF808FB00BF4DF808EDC9
:100AD000FFF7EAFF34BF012000205DF808FB00BFEC
:100AE0004DF808EDFFF7E0FF94BF012000205DF80E
:100AF00008FB00BF4DF808EDFFF7CEFF94BF0120C3
:100B000000205DF808FB00BF4DF808EDFFF7C4FFBB
:100B100034BF012000205DF808FB00BF4FEA41020E
:100B200012F5001215D211D56FF47873B3EB62523F
:100B300012D94FEAC12343F0004343EA505311F066
:100B4000004F23FA02F018BF404270474FF00000F8
:100B5000704750EA013005D111F0004008BF6FF036
:100B6000004070474FF00000704700BF53B94AB9CA
:100B7000002908BF00281CBF4FF0FF314FF0FF30A5
:100B800000F074B9ADF1080C6DE904CE00F006F880
:100B9000DDF804E0DDE9022304B070472DE9F047F9
:100BA000089D04468E46002B4DD18A42944669D951
:100BB000B2FA82F252B101FA02F3C2F1200120FA34
:100BC00001F10CFA02FC41EA030E94404FEA1C4882
:100BD000210CBEFBF8F61FFA8CF708FB16E341EA7E
:100BE000034306FB07F199420AD91CEB030306F104
:100BF000FF3080F01F81994240F21C81023E634425
:100C00005B1AA4B2B3FBF8F008FB103344EA0344C8
:100C100000FB07F7A7420AD91CEB040400F1FF33DD
:100C200080F00A81A74240F207816444023840EA1A
:100C30000640E41B00261DB1D4400023C5E9004353
:100C40003146BDE8F0878B4209D9002D00F0EF80D6
:100C50000026C5E9000130463146BDE8F087B3FA09
:100C600083F6002E4AD18B4202D3824200F2F980F1
:100C7000841A61EB030301209E46002DE0D0C5E9F4
:100C8000004EDDE702B9FFDEB2FA82F2002A40F040
:100C90009280A1EB0C014FEA1C471FFA8CFE012643
:100CA000200CB1FBF7F307FB131140EA01410EFBE7
:100CB00003F0884208D91CEB010103F1FF3802D28E
:100CC000884200F2CB804346091AA4B2B1FBF7F088
:100CD00007FB101144EA01440EFB00FEA64508D9AB
:100CE0001CEB040400F1FF3102D2A64500F2BB80E8
:100CF0000846A4EB0E0440EA03409CE7C6F1200737
:100D0000B34022FA07FC4CEA030C20FA07F401FA7C
:100D100006F31C43F9404FEA1C4900FA06F3B1FB05
:100D2000F9F8200C1FFA8CFE09FB181140EA01416A
:100D300008FB0EF0884202FA06F20BD91CEB010107
:100D400008F1FF3A80F08880884240F28580A8F15F
:100D500002086144091AA4B2B1FBF9F009FB1011B1
:100D600044EA014100FB0EFE8E4508D91CEB01014F
:100D700000F1FF346CD28E456AD90238614440EAF2
:100D80000840A0FB0294A1EB0E01A142C846A64672
:100D900056D353D05DB1B3EB080261EB0E0101FAFB
:100DA00007F722FA06F3F1401F43C5E90071002658
:100DB0003146BDE8F087C2F12003D8400CFA02FCAE
:100DC00021FA03F3914001434FEA1C471FFA8CFEBE
:100DD000B3FBF7F007FB10360B0C43EA064300FBAE
:100DE0000EF69E4204FA02F408D91CEB030300F14C
:100DF000FF382FD29E422DD9023863449B1B89B203
:100E0000B3FBF7F607FB163341EA034106FB0EF38B
:100E10008B4208D91CEB010106F1FF3816D28B4238
:100E200014D9023E6144C91A46EA004638E72E4604
:100E3000284605E70646E3E61846F8E64B45A9D2FC
:100E4000B9EB020864EB0C0E0138A3E74646EAE76B
:100E5000204694E74046D1E7D0467BE7023B614419
:100E600032E7304609E76444023842E7704700BF82
:100E700080B483B000AF78607B680B4A93420DDB8F
:100E80007B6841F29312934208DC7B68002B00DA06
:100E900003339B105B421A46044B1A6000BF0C37A9
:100EA000BD465DF8047B70476DEEFFFF2803002010
:100EB00080B483B000AF0346FB80094B1B6800225F
:100EC0005A6200BF064B1B685A6AFB889A42F9D3E4
:100ED00000BF00BF0C37BD465DF8047B704700BF04
:100EE0001401002080B500AF01224FF400710B48BF
:100EF00001F0D8FE0A20FFF7DBFF00224FF400715B
:100F0000064801F0CFFE064B1B68DA68044B1B68ED
:100F100042F00402DA6000BF80BD00BF000802405A
:100F2000140100200000000080B582B002AF01F083
:100F3000E7F900F0D1F800F049FA00F037F900F0D5
:100F40006BF900F019FA00F0B5F94F4802F086FB92
:100F500001224E494E4803F030FC00214D4802F07A
:100F60003DFC04214B4802F039FC4B4B93ED007BD8
:100F70004A4B93ED006B4A4B93ED005B00230193CA
:100F800001230093B0EE452AF0EE652AB0EE461A32
:100F9000F0EE661AB0EE470AF0EE670A414B424A9D
:100FA0004249434800F0D4FC0121414800F006FECC
:100FB0000A213F4800F076FF9FED2F1B9FED300B7D
:100FC0003B4800F019FEFFF78DFF3A4B1B68394A8A
:100FD0001360394B1B68384A1360374B1B68183B4A
:100FE0001A46364B1A60354B1B681846FFF792FAC3
:100FF00002460B462D49C1E900230A2001F0F2F90F
:101000002B4800F0F1FC284BD3E900231046194689
:10101000FFF784FD03461846FFF72AFF284B1B689D
:101020009B00284A1360254B1B681A46264927480F
:1010300004F092FB0346264A1360254B1B689AB2C4
:101040004FF0FF332149124803F025FB1D4B1B686D
:101050001A4620491D4804F07FFB03461C4A1360D2
:101060001B4B1B689AB24FF0FF331849084803F036
:1010700012FBA8E7AFF30080000000000070A7405B
:10108000000000000070A7C0CC0000205402002027
:101090005C01002014010020000000200800002056
:1010A0001000002018020020100200202002002062
:1010B000A0010020380200204C0200205002002035
:1010C000240300203003002064610008BC020020DB
:1010D000340300206861000880B594B000AF07F1C8
:1010E000200330220021184604F02EFB07F10C03E8
:1010F00000221A605A609A60DA601A610023BB60AD
:10110000284B1B6C274A43F080531364254B1B6C00
:1011100003F08053BB60BB6800237B60224B1B68DD
:10112000214A43F4804313601F4B1B6803F4804340
:101130007B607B6802233B620123FB6210233B63DD
:101140000223BB630023FB6308233B64A8237B6467
:101150000223BB640423FB6407F12003184601F05B
:10116000D5FD0346002B01D000F0B0FB0F23FB6040
:1011700002233B6100237B614FF4A053BB614FF41A
:101180008053FB6107F10C030521184602F036F885
:101190000346002B01D000F099FB00BF5037BD463D
:1011A00080BD00BF003802400070004080B500AF35
:1011B000174B184A1A60164B2A225A60144B002209
:1011C0009A60134B0022DA60114B4FF400321A611F
:1011D0000F4B4FF440125A610D4B00221A760C4B04
:1011E00000225A760A4B00229A76094B0022DA76C0
:1011F000074B00221A77064B00225A77044801F069
:1012000015F90346002B01D000F060FB00BF80BD44
:10121000A40000200064004080B586B000AF07F154
:10122000080300221A605A609A60DA603B46002286
:101230001A605A601D4B1E4A1A601C4B41F6573209
:101240005A601A4B00229A60184B0122DA60174B41
:1012500000221A61154B00229A61144802F0AEF97F
:101260000346002B01D000F031FB4FF48053BB60EC
:1012700007F1080319460D4802F07CFD0346002BD8
:1012800001D000F023FB00233B6000237B603B4642
:101290001946064803F022F90346002B01D000F05E
:1012A00015FB00BF1837BD4680BD00BFCC00002035
:1012B0000004004080B586B000AF07F110030022A3
:1012C0001A605A603B4600221A605A609A60DA60DF
:1012D000274B284A1A60264BA7225A60244B00222B
:1012E0009A60234B4FF6FE72DA60214B00221A619E
:1012F0001F4B00225A611E4B00229A611C4802F0CB
:101300001DFA0346002B01D000F0E0FA00233B61F8
:1013100000237B6107F110031946154803F0DEF83E
:101320000346002B01D000F0D1FA00233B600123DB
:101330007B600023BB600023FB603B460022194614
:101340000B4802F07BFC0346002B01D000F0BEFAF4
:101350003B4604221946064802F070FC0346002B67
:1013600001D000F0B3FA00BF1837BD4680BD00BF02
:10137000140100200004014080B500AF114B124A57
:101380001A60104B4FF4E1325A600E4B00229A6003
:101390000C4B0022DA600B4B00221A61094B0C2225
:1013A0005A61084B00229A61064B0022DA61054817
:1013B00003F024F90346002B01D000F087FA00BFA8
:1013C00080BD00BF5C0100200044004080B588B0B3
:1013D00000AF07F10C0300221A605A609A60DA60CD
:1013E0001A610023BB602A4B1B6B294A43F0100390
:1013F0001363274B1B6B03F01003BB60BB68002318
:101400007B60234B1B6B224A43F001031363204B89
:101410001B6B03F001037B607B6800233B601C4B6C
:101420001B6B1B4A43F004031363194B1B6B03F044
:1014300004033B603B6800220C21164801F032FC9B
:1014400000224FF44071144801F02CFC0C23FB6087
:1014500001233B6100237B610223BB6107F10C0385
:1014600019460C4801F082FA4FF44073FB600123E7
:101470003B6100237B610023BB6107F10C0319462C
:10148000054801F073FA00BF2037BD4680BD00BF9C
:101490000038024000100240000802400000000036
:1014A00080B586B002AF7860514B1B780D2B0FD002
:1014B0004F4B1B78702B0BD04D4B1B78692B07D0F3
:1014C0004B4B1B78642B03D0494B1B786D2B74D18D
:1014D000484B1B685A1C47490A60474A0D21D154A2
:1014E000454804F003F9F860414B1B78702B07D195
:1014F000F868FFF70FF802460B464049C1E90023A0
:101500003B4B1B78692B07D1F868FFF703F80246BD
:101510000B463B49C1E90023354B1B78642B07D1AF
:10152000F868FEF7F7FF02460B463649C1E900238B
:101530002F4B1B786D2B07D1F868FEF7EBFF0246A7
:101540000B463149C1E900232C4B93ED007B2C4B1A
:1015500093ED006B2B4B93ED005B00230193012374
:101560000093B0EE452AF0EE652AB0EE461AF0EE92
:10157000661AB0EE470AF0EE670A234B234A244965
:10158000244800F0E5F90121224800F017FB0A2168
:10159000204800F087FC9FED121B9FED130B1D48A8
:1015A00000F02AFB134B1B681A460021124804F076
:1015B000CBF8104B00221A6008E00E4B1B685A1C37
:1015C0000C490A600A4A11780B4AD1540122084991
:1015D000114803F0F2F800BF1037BD4680BD00BFD0
:1015E000000000000070A740000000000070A7C0CD
:1015F0005402002020030020580200200000002098
:101600000800002010000020180200201002002016
:1016100020020020A00100205C01002080B582B0E3
:1016200000AF78607B68244A934241D1234B1B78FA
:10163000012B08D100220421214801F033FB1F4B6C
:1016400000221A7030E01F4B1A681F4B1B689A4229
:1016500012DB002208211A4801F024FB1A4B1B68F8
:101660000133194A136001220421154801F01AFBC5
:10167000124B01221A7017E0124B1A68124B1B68AA
:101680009A4211DA012208210D4801F00BFB0E4BA2
:101690001B68013B0C4A136001220421084801F039
:1016A00001FB064B01221A700421054801F013FBCF
:1016B00000BF0837BD4680BDCC0000202C030020B1
:1016C00000100240280300202403002080B500AF52
:1016D000324B1B78002B1AD10021314802F012FC4A
:1016E0000346304A13602D4B01221A702C4B1B68A5
:1016F0001A6A2B4B1B6822F00A021A62284B1B68DD
:101700001A6A274B1B6842F002021A6244E0234B1C
:101710001B78012B40D10021214802F0F3FB034646
:10172000214A13601E4B1B6800225A621E4B1A6826
:101730001C4B1B689A4216D91B4B1A68194B1B6825
:10174000D31A1A4A1360194B1B685B0041F26F727F
:10175000934208D8154B1B685B00154AA2FB032374
:101760005B09144A13600D4B00221A700C4B1B6866
:101770001A6A0B4B1B6822F00A021A62084B1A689D
:10178000074B1B68126A1A62054B1B68DA68044B28
:101790001B6822F00202DA6000BF80BD3402002024
:1017A00014010020280200202C020020300200201A
:1017B0001F85EB513802002080B500AF324B1B78FB
:1017C000002B1AD10421314802F09CFB0346304A19
:1017D00013602D4B01221A702C4B1B681A6A2B4B7D
:1017E0001B6822F0A0021A62284B1B681A6A274B5A
:1017F0001B6842F020021A6244E0234B1B78012B45
:1018000040D10421214802F07DFB0346214A1360A8
:101810001E4B1B6800225A621E4B1A681C4B1B6829
:101820009A4216D91B4B1A68194B1B68D31A1A4ACD
:101830001360194B1B685B0041F26F72934208D82A
:10184000154B1B685B00154AA2FB03235B09144A76
:1018500013600D4B00221A700C4B1B681A6A0B4B5D
:101860001B6822F0A0021A62084B1A68074B1B681B
:10187000126A1A62054B1B68DA68044B1B6822F077
:101880000402DA6000BF80BD48020020140100207D
:101890003C02002040020020440200201F85EB5142
:1018A0004C02002080B582B000AF78607B681B7F5F
:1018B000012B01D1FFF70AFF7B681B7F022B01D1AF
:1018C000FFF77AFF00BF0837BD4680BD80B400AF88
:1018D00072B600BFFEE780B582B000AF78607B686B
:1018E0005B6CD3E900237968C1E914237B681B6C26
:1018F000D3E900237968C1E916237B68D3E9140191
:101900007B68D3E91A23FFF7FFF80346002B06D0C4
:101910007B68D3E91A237968C1E9142311E07B6855
:10192000D3E914017B68D3E91823FFF7CFF8034606
:10193000002B00D105E07B68D3E918237968C1E961
:10194000142300BF0837BD4680BD00000000000022
:1019500080B58AB000AF78623962FA61BB6187ED09
:10196000040B87ED021B87ED002B7B6AFA695A6432
:101970007B6A3A6A1A647B6ABA699A647B6A002253
:101980005A709FED151B9FED160B786A00F034F925
:101990007B6A64229A6097F834301946786A00F0BE
:1019A00041FA97F83030194697ED002B97ED021B5E
:1019B00097ED040B786A00F08DF900F007FD024600
:1019C0007B6A9B68D21A7B6A5A6000BF2837BD4683
:1019D00080BD00BFAFF300800000000000E06F405A
:1019E0000000000000000000B0B58CB000AF7860CF
:1019F0007B685B78002B01D10023DBE000F0E6FC84
:101A000078627B685B687A6AD31A3B627B689B6802
:101A10003A6A9A42C0F0CD807B681B6CD3E9002300
:101A2000C7E906237B689B6CD3E90001D7E906234D
:101A3000FEF722FC02460B46C7E904237B68D3E984
:101A40001623D7E90601FEF717FC02460B46C7E945
:101A500002237B68D3E914457B68D3E90C01D7E9FD
:101A60000423FEF7C1FD02460B4620462946FEF739
:101A700005FC02460B467968C1E914237B681B7894
:101A8000002B14D17B68D3E914457B68D3E90A01A4
:101A9000D7E90223FEF7A8FD02460B462046294659
:101AA000FEF7EAFB02460B467968C1E914237B681E
:101AB000D3E914017B68D3E91A23FFF725F803461D
:101AC000002B06D07B68D3E91A237968C1E9142377
:101AD00010E07B68D3E914017B68D3E91823FEF793
:101AE000F5FF0346002B05D07B68D3E918237968FE
:101AF000C1E914237B681B78002B0BD07B68D3E9EA
:101B00000A23D7E90401FEF76FFD02460B46C7E939
:101B10000A2305E04FF000024FF00003C7E90A2353
:101B20007B68D3E914457B68D3E90E01D7E902232A
:101B3000FEF75AFD02460B4620462946FEF79CFB5F
:101B400002460B46D7E90A01FEF798FB02460B4610
:101B5000C7E90A237B68D3E91A23D7E90A01FEF70C
:101B6000D3FF0346002B05D07B68D3E91A23C7E9CE
:101B70000A230EE07B68D3E91823D7E90A01FEF7B0
:101B8000A5FF0346002B04D07B68D3E91823C7E9DF
:101B90000A237B68596CD7E90A23C1E900237968D5
:101BA000D7E90623C1E916237B687A6A5A600123C4
:101BB00000E0002318463037BD46B0BD80B584B084
:101BC00000AF78600B46FB70FB78012B0CBF012344
:101BD0000023DBB2FB73FB7B002B06D07B685B78BA
:101BE000002B02D17868FFF776FE7B68FA7B5A708B
:101BF00000BF1037BD4680BD80B586B000AF7861AC
:101C000087ED020B87ED001BD7E90023D7E902011E
:101C1000FEF770FF0346002B58D17969D7E90223FC
:101C2000C1E918237969D7E90023C1E91A237B693F
:101C30005B78002B4BD07B695B6CD3E900017B693F
:101C4000D3E91A23FEF760FF0346002B07D07B6918
:101C5000596C7B69D3E91A23C1E9002312E07B693F
:101C60005B6CD3E900017B69D3E91823FEF72EFFF3
:101C70000346002B06D07B69596C7B69D3E9182396
:101C8000C1E900237B69D3E914017B69D3E91A23F5
:101C9000FEF73AFF0346002B06D07B69D3E91A23EF
:101CA0007969C1E9142312E07B69D3E914017B69E6
:101CB000D3E91823FEF70AFF0346002B07D07B6900
:101CC000D3E918237969C1E9142300E000BF18376C
:101CD000BD4680BD80B58AB000AFF86187ED040BCA
:101CE00087ED021B87ED002B0B46FB764FF00002C1
:101CF0004FF00003D7E90401FEF7E8FE0346002B8E
:101D000040F089804FF000024FF00003D7E9020154
:101D1000FEF7DCFE0346002B7DD14FF000024FF0B2
:101D20000003D7E90001FEF7D1FE0346002B72D174
:101D3000FB69FA7E9A70FB7E012B0CBF0123002306
:101D4000DBB21A46FB691A70F969D7E90423C1E9C5
:101D50000423F969D7E90223C1E90623F969D7E920
:101D60000023C1E90823FB699B681846FEF7C2FB04
:101D70004FF000022A4BFEF761FD02460B46C7E911
:101D80000823F969D7E90423C1E90A23D7E908231D
:101D9000D7E90201FEF728FC02460B46F969C1E9C2
:101DA0000C23D7E90823D7E90001FEF747FD0246D7
:101DB0000B46F969C1E90E23FB69DB78012B2BD1B6
:101DC000FB69D3E90A234FF000004FF00001FEF752
:101DD00053FA02460B46F969C1E90A23FB69D3E9C4
:101DE0000C234FF000004FF00001FEF745FA0246C9
:101DF0000B46F969C1E90C23FB69D3E90E234FF0C7
:101E000000004FF00001FEF737FA02460B46F96971
:101E1000C1E90E2300E000BF2837BD4680BD00BFEA
:101E200000408F4080B582B000AF78600B46FB70F9
:101E30007B685B78002B2ED07B68DB78FA789A423F
:101E400029D07B68D3E90A234FF000004FF000014E
:101E5000FEF712FA02460B467968C1E90A237B684D
:101E6000D3E90C234FF000004FF00001FEF704FA15
:101E700002460B467968C1E90C237B68D3E90E233F
:101E80004FF000004FF00001FEF7F6F902460B4656
:101E90007968C1E90E237B68FA78DA7000BF0837E9
:101EA000BD4680BDB0B584B000AF786039603B6896
:101EB000002B2EDD3868FEF72DFB04460D467B68AF
:101EC0009B681846FEF716FB02460B46204629463D
:101ED000FEF7B4FC02460B46C7E902237B68D3E950
:101EE0000C01D7E90223FEF77FFB02460B46796817
:101EF000C1E90C237B68D3E90E01D7E90223FEF781
:101F00009DFC02460B467968C1E90E233A687B685E
:101F10009A6000BF1037BD46B0BD000080B483B0EA
:101F200000AF00237B60104B5B6C0F4A43F480438F
:101F300053640D4B5B6C03F480437B607B68002330
:101F40003B60094B1B6C084A43F080531364064BFB
:101F50001B6C03F080533B603B6800BF0C37BD46F1
:101F60005DF8047B704700BF0038024080B58AB03E
:101F700000AF786007F1140300221A605A609A607B
:101F8000DA601A617B681B68194A93422CD10023DE
:101F90003B61184B1B6C174A43F000731364154BDD
:101FA0001B6C03F000733B613B690023FB60114B2A
:101FB0001B6B104A43F0010313630E4B1B6B03F0C2
:101FC0000103FB60FB684FF4C0537B610223BB61DC
:101FD0000023FB6103233B6209237B6207F11403A7
:101FE0001946054800F0C2FC00BF2837BD4680BD39
:101FF00000640040003802400000024080B584B018
:1020000000AF78607B681B680E4A934215D10023AD
:10201000FB600D4B1B6C0C4A43F0020313640A4B2C
:102020001B6C03F00203FB60FB68002200211D20F3
:1020300000F0D3FB1D2000F0ECFB00BF1037BD46C5
:1020400080BD00BF000400400038024080B58AB067
:1020500000AF786007F1140300221A605A609A609A
:10206000DA601A617B681B681D4A934233D10023F2
:102070003B611C4B5B6C1B4A43F002035364194BDE
:102080005B6C03F002033B613B690023FB60154B73
:102090001B6B144A43F004031363124B1B6B03F0D6
:1020A0000403FB60FB68C0237B610223BB61022346
:1020B000FB6102233B6203237B6207F11403194691
:1020C000094800F053FC002200212E2000F085FB7F
:1020D0002E2000F09EFB00BF2837BD4680BD00BF0C
:1020E00000040140003802400008024080B58AB078
:1020F00000AF786007F1140300221A605A609A60FA
:10210000DA601A617B681B681D4A934233D1002351
:102110003B611C4B1B6C1B4A43F400331364194B8B
:102120001B6C03F400333B613B690023FB60154BE0
:102130001B6B144A43F001031363124B1B6B03F038
:102140000103FB60FB680C237B610223BB6100235E
:10215000FB6103233B6207237B6207F114031946EB
:10216000094800F003FC00220021262000F035FB86
:10217000262000F04EFB00BF2837BD4680BD00BFC3
:1021800000440040003802400000024080B400AF2C
:10219000FEE780B400AFFEE780B400AFFEE780B496
:1021A00000AFFEE780B400AFFEE780B400AF00BF31
:1021B000BD465DF8047B704780B400AF00BFBD46EC
:1021C0005DF8047B704780B400AF00BFBD465DF88A
:1021D000047B704780B500AF00F0E4F800BF80BD1D
:1021E00080B500AF024801F021FC00BF80BD00BFF8
:1021F000CC00002080B500AF024802F00FFB00BF0A
:1022000080BD00BF5C01002080B500AF024801F036
:102210000DFC00BF80BD00BF1401002080B586B05A
:1022200000AF7860144A154BD31A7B617B693B6120
:10223000134B1B68002B02D1114B124A1A60104B32
:102240001A687B6813443A699A4207D203F052FA3B
:1022500003460C221A604FF0FF3309E0084B1B685D
:10226000FB60074B1A687B681344054A1360FB68E0
:1022700018461837BD4680BD00000220000400004B
:10228000380300205003002080B400AF064BD3F881
:102290008830054A43F47003C2F8883000BFBD4659
:1022A0005DF8047B704700BF00ED00E0DFF834D03C
:1022B0000D480E490E4A002302E0D458C45004339E
:1022C000C4188C42F9D30B4A0B4C002301E0136075
:1022D0000432A242FBD3FFF7D7FF03F011FAFEF757
:1022E00023FE70470000022000000020880000202C
:1022F000CC6200088800002050030020FEE70000A8
:1023000080B500AF0E4B1B680D4A43F40073136099
:102310000B4B1B680A4A43F480631360084B1B682D
:10232000074A43F480731360032000F04BFA0F2038
:1023300000F008F8FFF7F2FD0023184680BD00BF4B
:10234000003C024080B582B000AF7860124B1A6842
:10235000124B1B7819464FF47A73B3FBF1F3B2FBBF
:10236000F3F3184600F063FA0346002B01D0012373
:102370000EE07B680F2B0AD8002279684FF0FF30FF
:1023800000F02BFA064A7B681360002300E001236B
:1023900018460837BD4680BD1800002020000020E8
:1023A0001C00002080B400AF064B1B781A46064B79
:1023B0001B681344044A136000BFBD465DF8047BEC
:1023C000704700BF200000203C03002080B400AF15
:1023D000034B1B681846BD465DF8047B704700BF81
:1023E0003C03002080B584B000AF7860FFF7EEFFBB
:1023F000B8607B68FB60FB68B3F1FF3F05D00A4B18
:102400001B781A46FB681344FB6000BFFFF7DEFF32
:102410000246BB68D31AFA689A42F7D800BF00BFD9
:102420001037BD4680BD00BF2000002080B584B0BD
:1024300000AF78607B68002B01D10123EDE07B6861
:1024400093F82030DBB2002B02D17868FFF78EFDC5
:102450007B681B681A687B681B6842F001021A607F
:10246000FFF7B4FFF86012E0FFF7B0FF0246FB6829
:10247000D31A0A2B0BD97B685B6A43F400327B6862
:102480005A627B68052283F820200123C5E07B681F
:102490001B685B6803F00103002BE5D07B681B68B9
:1024A0001A687B681B6822F002021A60FFF78EFF31
:1024B000F86012E0FFF78AFF0246FB68D31A0A2B86
:1024C0000BD97B685B6A43F400327B685A627B6895
:1024D000052283F8202001239FE07B681B685B684E
:1024E00003F00203002BE5D17B681B7E012B08D192
:1024F0007B681B681A687B681B6842F080021A6060
:1025000007E07B681B681A687B681B6822F0800202
:102510001A607B685B7E012B08D17B681B681A6898
:102520007B681B6842F040021A6007E07B681B680A
:102530001A687B681B6822F040021A607B689B7EE9
:10254000012B08D17B681B681A687B681B6842F006
:1025500020021A6007E07B681B681A687B681B68AA
:1025600022F020021A607B68DB7E012B08D17B6899
:102570001B681A687B681B6822F010021A6007E06B
:102580007B681B681A687B681B6842F010021A603F
:102590007B681B7F012B08D17B681B681A687B68EE
:1025A0001B6842F008021A6007E07B681B681A6823
:1025B0007B681B6822F008021A607B685B7F012B36
:1025C00008D17B681B681A687B681B6842F00402AC
:1025D0001A6007E07B681B681A687B681B6822F03A
:1025E00004021A607B689A687B68DB681A437B6820
:1025F0001B691A437B685B6942EA03017B685B687D
:102600005A1E7B681B680A43DA617B6800225A62A3
:102610007B68012283F82020002318461037BD462E
:1026200080BD000080B485B000AF78607B6803F0A7
:102630000703FB600C4BDB68BB60BA684FF6FF0317
:102640001340BB60FB681A02BB68134343F0BF63CF
:1026500043F40033BB60044ABB68D36000BF143747
:10266000BD465DF8047B704700ED00E080B400AF2C
:10267000044BDB681B0A03F007031846BD465DF8F0
:10268000047B704700ED00E080B483B000AF0346E8
:10269000FB7197F90730002B0BDBFB7903F01F026E
:1026A000074997F907305B09012000FA02F241F867
:1026B000232000BF0C37BD465DF8047B704700BF88
:1026C00000E100E080B483B000AF03463960FB71E5
:1026D00097F90730002B0ADB3B68DAB20C4997F90F
:1026E00007301201D2B20B4483F800230AE03B68A2
:1026F000DAB20849FB7903F00F03043B1201D2B2AE
:102700000B441A7600BF0C37BD465DF8047B70475A
:1027100000E100E000ED00E080B489B000AFF860B7
:10272000B9607A60FB6803F00703FB61FB69C3F1E2
:102730000703042B28BF0423BB61FB690433062B6A
:1027400002D9FB69033B00E000237B614FF0FF32BD
:10275000BB6902FA03F3DA43BB681A407B699A400B
:102760004FF0FF317B6901FA03F3D9437B680B40DB
:10277000134318462437BD465DF8047B70470000BC
:1027800080B582B000AF78607B68013BB3F1807F99
:1027900001D301230FE00A4A7B68013B53600F21FC
:1027A0004FF0FF30FFF78EFF054B00229A60044B7D
:1027B00007221A60002318460837BD4680BD00BFB7
:1027C00010E000E080B582B000AF78607868FFF775
:1027D00029FF00BF0837BD4680BD80B586B000AF79
:1027E0000346B9607A60FB7300237B61FFF73EFF0D
:1027F00078617A68B9687869FFF78EFF024697F9C1
:102800000F3011461846FFF75DFF00BF1837BD4671
:1028100080BD80B582B000AF0346FB7197F90730E9
:102820001846FFF731FF00BF0837BD4680BD80B5B1
:1028300082B000AF78607868FFF7A2FF03461846C1
:102840000837BD4680BD80B584B000AF78607B6836
:102850009B6DFB60FFF7BAFDB8607B6893F835307D
:10286000DBB2022B08D07B6880225A657B6800228D
:1028700083F83420012352E07B681B681A687B6868
:102880001B6822F016021A607B681B685A697B6815
:102890001B6822F080025A617B681B6C002B03D1FD
:1028A0007B689B6C002B07D07B681B681A687B6871
:1028B0001B6822F008021A607B681B681A687B6834
:1028C0001B6822F001021A6013E0FFF77FFD024649
:1028D000BB68D31A052B0CD97B6820225A657B680C
:1028E000032283F835207B68002283F834200323F9
:1028F00015E07B681B681B6803F00103002BE4D123
:102900007B68DB6D3F229A40FB689A607B680122FE
:1029100083F835207B68002283F834200023184692
:102920001037BD4680BD80B483B000AF78607B684F
:1029300093F83530DBB2022B04D07B6880225A65D5
:1029400001230CE07B68052283F835207B681B6837
:102950001A687B681B6822F001021A60002318467F
:102960000C37BD465DF8047B7047000080B489B029
:1029700000AF7860396000237B6100233B61002356
:10298000BB610023FB616BE10122FB6902FA03F3E7
:102990007B613B681B687A6913403B613A697B69DC
:1029A0009A4240F05A813B685B6803F00303012BB5
:1029B00005D03B685B6803F00303022B30D17B68D2
:1029C0009B68BB61FB695B00032202FA03F3DB43F4
:1029D000BA691340BB613B68DA68FB695B0002FAC5
:1029E00003F3BA691343BB617B68BA699A607B6879
:1029F0005B68BB610122FB6902FA03F3DB43BA693E
:102A00001340BB613B685B681B0903F00102FB6973
:102A100002FA03F3BA691343BB617B68BA695A606F
:102A20003B685B6803F00303032B17D07B68DB680C
:102A3000BB61FB695B00032202FA03F3DB43BA6963
:102A40001340BB613B689A68FB695B0002FA03F3C1
:102A5000BA691343BB617B68BA69DA603B685B683B
:102A600003F00303022B23D1FB69DA087B680832E9
:102A700053F82230BB61FB6903F007039B000F2270
:102A800002FA03F3DB43BA691340BB613B681A697E
:102A9000FB6903F007039B0002FA03F3BA691343CF
:102AA000BB61FB69DA087B680832B96943F8221018
:102AB0007B681B68BB61FB695B00032202FA03F3BE
:102AC000DB43BA691340BB613B685B6803F00302F8
:102AD000FB695B0002FA03F3BA691343BB617B68CD
:102AE000BA691A603B685B6803F44033002B00F05E
:102AF000B4800023FB60604B5B6C5F4A43F480430F
:102B000053645D4B5B6C03F48043FB60FB685B4A82
:102B1000FB699B08023352F82330BB61FB6903F069
:102B200003039B000F2202FA03F3DB43BA6913404D
:102B3000BB617B68524A93422BD07B68514A9342D7
:102B400025D07B68504A93421FD07B684F4A9342FE
:102B500019D07B684E4A934213D07B684D4A93420A
:102B60000DD07B684C4A934207D07B684B4A934216
:102B700001D107230EE008230CE006230AE0052319
:102B800008E0042306E0032304E0022302E001231B
:102B900000E00023FA6902F0030292009340BA6950
:102BA0001343BB613549FB699B080233BA6941F89D
:102BB00023203B4B9B68BB613B69DB43BA691340F5
:102BC000BB613B685B6803F48013002B03D0BA69D8
:102BD0003B691343BB61324ABB699360304BDB688E
:102BE000BB613B69DB43BA691340BB613B685B680F
:102BF00003F40013002B03D0BA693B691343BB6194
:102C0000274ABB69D360264B5B68BB613B69DB43EA
:102C1000BA691340BB613B685B6803F40033002B67
:102C200003D0BA693B691343BB611D4ABB6953605A
:102C30001B4B1B68BB613B69DB43BA691340BB613B
:102C40003B685B6803F48033002B03D0BA693B69AF
:102C50001343BB61124ABB691360FB690133FB611B
:102C6000FB690F2B7FF690AE00BF00BF2437BD4637
:102C70005DF8047B704700BF003802400038014017
:102C8000000002400004024000080240000C024024
:102C9000001002400014024000180240001C0240D4
:102CA000003C014080B483B000AF78600B467B806D
:102CB00013467B707B78002B03D07A887B689A61FF
:102CC00003E07B881A047B689A6100BF0C37BD461D
:102CD0005DF8047B704780B485B000AF78600B4628
:102CE0007B807B685B69FB607A88FB6813401A0411
:102CF000FB68D9437B880B401A437B689A6100BF0D
:102D00001437BD465DF8047B7047000080B586B07F
:102D100000AF78607B68002B01D1012367E27B68FC
:102D20001B6803F00103002B75D0884B9B6803F0F0
:102D30000C03042B0CD0854B9B6803F00C03082B71
:102D400012D1824B5B6803F48003B3F5800F0BD183
:102D50007E4B1B6803F40033002B5BD07B685B6801
:102D6000002B57D1012342E27B685B68B3F5803FBB
:102D700006D1764B1B68754A43F4803313601DE01F
:102D80007B685B68B3F5A02F0CD1704B1B686F4A52
:102D900043F4802313606D4B1B686C4A43F480330B
:102DA00013600BE0694B1B68684A23F4803313609F
:102DB000664B1B68654A23F4802313607B685B685D
:102DC000002B13D0FFF702FB386108E0FFF7FEFA93
:102DD00002463B69D31A642B01D9032307E25B4BFC
:102DE0001B6803F40033002BF0D014E0FFF7EEFA79
:102DF000386108E0FFF7EAFA02463B69D31A642B10
:102E000001D90323F3E1514B1B6803F40033002B7A
:102E1000F0D100E000BF7B681B6803F00203002BC9
:102E200063D04A4B9B6803F00C03002B0BD0474B3D
:102E30009B6803F00C03082B1CD1444B5B6803F424
:102E40008003002B16D1414B1B6803F00203002BBB
:102E500005D07B68DB68012B01D00123C7E13B4B28
:102E60001B6823F0F8027B681B69DB0037491343BA
:102E70000B603AE07B68DB68002B20D0344B0122EA
:102E80001A60FFF7A3FA386108E0FFF79FFA0246DD
:102E90003B69D31A022B01D90323A8E12B4B1B68F2
:102EA00003F00203002BF0D0284B1B6823F0F8023C
:102EB0007B681B69DB00254913430B6015E0244B3D
:102EC00000221A60FFF782FA386108E0FFF77EFA05
:102ED00002463B69D31A022B01D9032387E11B4B1E
:102EE0001B6803F00203002BF0D17B681B6803F022
:102EF0000803002B36D07B685B69002B16D0154B7E
:102F000001221A60FFF762FA386108E0FFF75EFA03
:102F100002463B69D31A022B01D9032367E10B4B0D
:102F20005B6F03F00203002BF0D01BE0094B002283
:102F30001A60FFF74BFA38610EE0FFF747FA0246D6
:102F40003B69D31A022B07D9032350E10038024012
:102F500000004742800E4742884B5B6F03F002033C
:102F6000002BEAD17B681B6803F00403002B00F000
:102F700097800023FB75814B1B6C03F08053002B63
:102F80000FD10023BB607D4B1B6C7C4A43F0805308
:102F900013647A4B1B6C03F08053BB60BB68012346
:102FA000FB75774B1B6803F48073002B18D1744BAF
:102FB0001B68734A43F480731360FFF707FA3861A4
:102FC00008E0FFF703FA02463B69D31A022B01D946
:102FD00003230CE16A4B1B6803F48073002BF0D0D1
:102FE0007B689B68012B06D1644B1B6F634A43F0DF
:102FF000010313671CE07B689B68052B0CD15F4BBA
:103000001B6F5E4A43F0040313675C4B1B6F5B4A04
:1030100043F0010313670BE0584B1B6F574A23F033
:1030200001031367554B1B6F544A23F004031367C6
:103030007B689B68002B15D0FFF7C8F938610AE060
:10304000FFF7C4F902463B69D31A41F28832934232
:1030500001D90323CBE0494B1B6F03F00203002B84
:10306000EED014E0FFF7B2F938610AE0FFF7AEF9ED
:1030700002463B69D31A41F28832934201D90323B5
:10308000B5E03E4B1B6F03F00203002BEED1FB7D3E
:10309000012B05D1394B1B6C384A23F08053136444
:1030A0007B689B69002B00F0A180344B9B6803F088
:1030B0000C03082B5CD07B689B69022B41D1314B00
:1030C00000221A60FFF782F9386108E0FFF77EF905
:1030D00002463B69D31A022B01D9032387E0274B11
:1030E0001B6803F00073002BF0D17B68DA697B6802
:1030F0001B6A1A437B685B6A9B011A437B689B6A65
:103100005B08013B1B041A437B68DB6A1B061B49F7
:1031100013434B601B4B01221A60FFF757F93861CC
:1031200008E0FFF753F902463B69D31A022B01D995
:1031300003235CE0114B1B6803F00073002BF0D0FD
:1031400054E0104B00221A60FFF740F9386108E0A4
:10315000FFF73CF902463B69D31A022B01D903233E
:1031600045E0064B1B6803F00073002BF0D13DE0F7
:103170007B689B69012B07D1012338E000380240AE
:1031800000700040600047421B4B5B68FB607B683F
:103190009B69012B28D0FB6803F480027B68DB6904
:1031A0009A4221D1FB6803F03F027B681B6A9A4276
:1031B0001AD1FA6847F6C07313407A68526A9201CE
:1031C000934211D1FB6803F440327B689B6A5B0831
:1031D000013B1B049A4207D1FB6803F070627B68D5
:1031E000DB6A1B069A4201D0012300E00023184647
:1031F0001837BD4680BD00BF0038024080B584B09E
:1032000000AF786039607B68002B01D10123CCE0EE
:10321000684B1B6803F007033A689A420CD9654B68
:103220003A68D2B21A70634B1B6803F007033A681E
:103230009A4201D00123B8E07B681B6803F00203C7
:10324000002B20D07B681B6803F00403002B05D003
:10325000594B9B68584A43F4E05393607B681B6862
:1032600003F00803002B05D0534B9B68524A43F4EC
:1032700060439360504B9B6823F0F0027B689B682F
:103280004D4913438B607B681B6803F00103002BDF
:1032900044D07B685B68012B07D1474B1B6803F464
:1032A0000033002B19D101237FE07B685B68022B80
:1032B00003D07B685B68032B07D13F4B1B6803F08F
:1032C0000073002B09D101236FE03B4B1B6803F017
:1032D0000203002B01D1012367E0374B9B6823F0E9
:1032E00003027B685B68344913438B60FFF76EF819
:1032F000F8600AE0FFF76AF80246FB68D31A41F269
:103300008832934201D903234FE02B4B9B6803F093
:103310000C027B685B689B009A42EBD1254B1B68D3
:1033200003F007033A689A420CD2224B3A68D2B2B1
:103330001A70204B1B6803F007033A689A4201D0C9
:10334000012332E07B681B6803F00403002B08D0E4
:10335000194B9B6823F4E0527B68DB6816491343E2
:103360008B607B681B6803F00803002B09D0124BAD
:103370009B6823F460427B681B69DB000E491343A2
:103380008B6000F021F802460B4B9B681B0903F091
:103390000F030A49CB5C22FA03F3094A1360094B75
:1033A0001B681846FEF7CEFF002318461037BD46AF
:1033B00080BD00BF003C0240003802407061000840
:1033C000180000201C0000202DE9B04F90B000AF85
:1033D00000237B630023FB6300233B630023BB6369
:1033E000594B9B6803F00C03082B0DD0082B00F2FF
:1033F000A180002B02D0042B03D09BE0534BBB6376
:103400009BE0534BBB6398E04F4B5B6803F03F037B
:103410007B634D4B5B6803F48003002B28D04A4B41
:103420005B689B0900223B627A623B6AC3F3080037
:103430000021474B03FB01F2002300FB03F313447D
:10344000434AA0FB0212FA620A46BA62FA6A1344BD
:10345000FB627B6B0022BB61FA61D7E90623D7E9E7
:103460000A01FDF783FB02460B461346FB6353E05C
:10347000354B5B689B0900223B617A613B69C3F372
:10348000080A4FF0000B52465B464FF000004FF029
:103490000001590141EAD261500102460B46B2EBEC
:1034A0000A0863EB0B094FF000024FF000034FEAEC
:1034B000891343EA98634FEA8812B2EB080463EB7E
:1034C00009054FF000024FF00003EB0043EA54738C
:1034D000E20014461D4614EB0A033B6045EB0B0368
:1034E0007B604FF000024FF00003D7E9004529460A
:1034F0008B02214643EA915321468A02104619461F
:103500007B6B0022BB60FA60D7E90223FDF72EFB3C
:1035100002460B461346FB630B4B5B681B0C03F028
:10352000030301335B003B63FA6B3B6BB2FBF3F3CA
:10353000BB6302E0054BBB6300BFBB6B1846403763
:10354000BD46BDE8B08F00BF003802400024F40043
:1035500040787D0180B400AF034B1B681846BD4620
:103560005DF8047B704700BF1800002080B500AFF5
:10357000FFF7F0FF0246054B9B689B0A03F0070329
:103580000349CB5C22FA03F3184680BD00380240A1
:103590008061000880B500AFFFF7DCFF0246054BF5
:1035A0009B685B0B03F007030349CB5C22FA03F330
:1035B000184680BD003802408061000880B582B0A6
:1035C00000AF78607B68002B01D1012341E07B686C
:1035D00093F83D30DBB2002B06D17B68002283F8E4
:1035E0003C207868FEF70AFD7B68022283F83D20C4
:1035F0007B681A687B6804331946104600F0E4FCC7
:103600007B68012283F846207B68012283F83E20F4
:103610007B68012283F83F207B68012283F84020E9
:103620007B68012283F841207B68012283F84220D5
:103630007B68012283F843207B68012283F84420C1
:103640007B68012283F845207B68012283F83D20B6
:10365000002318460837BD4680BD000080B485B001
:1036600000AF78607B6893F83D30DBB2012B01D06E
:1036700001234EE07B68022283F83D207B681B68B3
:10368000DA687B681B6842F00102DA607B681B68BD
:10369000234A934222D07B681B68B3F1804F1DD030
:1036A0007B681B681F4A934218D07B681B681E4AC0
:1036B000934213D07B681B681C4A93420ED07B68F0
:1036C0001B681B4A934209D07B681B68194A9342C6
:1036D00004D07B681B68184A934211D17B681B6831
:1036E0009B6803F00703FB60FB68062B10D07B6828
:1036F0001B681A687B681B6842F001021A6007E0C9
:103700007B681B681A687B681B6842F001021A60BC
:10371000002318461437BD465DF8047B704700BF90
:10372000000001400004004000080040000C004080
:1037300000040140004001400018004080B582B004
:1037400000AF78607B68002B01D1012341E07B68EA
:1037500093F83D30DBB2002B06D17B68002283F862
:103760003C207868FEF772FC7B68022283F83D20DB
:103770007B681A687B6804331946104600F024FC05
:103780007B68012283F846207B68012283F83E2073
:103790007B68012283F83F207B68012283F8402068
:1037A0007B68012283F841207B68012283F8422054
:1037B0007B68012283F843207B68012283F8442040
:1037C0007B68012283F845207B68012283F83D2035
:1037D000002318460837BD4680BD000080B584B080
:1037E00000AF786039600023FB733B68002B04D185
:1037F0007B6893F83E30DBB213E03B68042B04D1C6
:103800007B6893F83F30DBB20BE03B68082B04D1B8
:103810007B6893F84030DBB203E07B6893F841307B
:10382000DBB2BB733B68002B04D17B6893F842305A
:10383000DBB213E03B68042B04D17B6893F8433080
:10384000DBB20BE03B68082B04D17B6893F8443073
:10385000DBB203E07B6893F84530DBB27B73BB7B64
:10386000012B02D17B7B012B01D00123CCE03B68F3
:10387000002B04D17B68022283F83E2013E03B68D2
:10388000042B04D17B68022283F83F200BE03B68C5
:10389000082B04D17B68022283F8402003E07B6878
:1038A000022283F841203B68002B04D17B6802226E
:1038B00083F8422013E03B68042B04D17B6802228A
:1038C00083F843200BE03B68082B04D17B6802227D
:1038D00083F8442003E07B68022283F845203B689C
:1038E0000C2B41D801A252F823F000BF2139000867
:1038F0006939000869390008693900083339000856
:103900006939000869390008693900084539000833
:103910006939000869390008693900085739000811
:103920007B681B68DA687B681B6842F00202DA6019
:103930001DE07B681B68DA687B681B6842F0040244
:10394000DA6014E07B681B68DA687B681B6842F009
:103950000802DA600BE07B681B68DA687B681B682A
:1039600042F01002DA6002E00123FB7300BFFB7B30
:10397000002B48D17B681B6801223968184600F08B
:1039800087FD7B681B68224A934222D07B681B68B4
:10399000B3F1804F1DD07B681B681E4A934218D03C
:1039A0007B681B681C4A934213D07B681B681B4AC8
:1039B00093420ED07B681B68194A934209D07B68FA
:1039C0001B68184A934204D07B681B68164A9342CE
:1039D00011D17B681B689B6803F00703BB60BB6861
:1039E000062B10D07B681B681A687B681B6842F046
:1039F00001021A6007E07B681B681A687B681B6815
:103A000042F001021A60FB7B18461037BD4680BDAC
:103A1000000001400004004000080040000C00408D
:103A200000040140004001400018004080B582B011
:103A300000AF78607B681B681B6903F00203022BF0
:103A400022D17B681B68DB6803F00203022B1BD1C9
:103A50007B681B686FF002021A617B6801221A778B
:103A60007B681B689B6903F00303002B03D0786815
:103A7000FDF718FF05E0786800F088FA786800F034
:103A80008FFA7B6800221A777B681B681B6903F03A
:103A90000403042B22D17B681B68DB6803F004035A
:103AA000042B1BD17B681B686FF004021A617B68D2
:103AB00002221A777B681B689B6903F44073002B12
:103AC00003D07868FDF7EEFE05E0786800F05EFA56
:103AD000786800F065FA7B6800221A777B681B68BB
:103AE0001B6903F00803082B22D17B681B68DB6885
:103AF00003F00803082B1BD17B681B686FF00802DA
:103B00001A617B6804221A777B681B68DB6903F003
:103B10000303002B03D07868FDF7C4FE05E0786846
:103B200000F034FA786800F03BFA7B6800221A77DC
:103B30007B681B681B6903F01003102B22D17B6884
:103B40001B68DB6803F01003102B1BD17B681B681C
:103B50006FF010021A617B6808221A777B681B6875
:103B6000DB6903F44073002B03D07868FDF79AFEFD
:103B700005E0786800F00AFA786800F011FA7B68CE
:103B800000221A777B681B681B6903F00103012B75
:103B90000ED17B681B68DB6803F00103012B07D1A2
:103BA0007B681B686FF001021A617868FDF736FDCB
:103BB0007B681B681B6903F08003802B0ED17B6838
:103BC0001B68DB6803F08003802B07D17B681B68D0
:103BD0006FF080021A61786800F006FD7B681B6850
:103BE0001B6903F04003402B0ED17B681B68DB6828
:103BF00003F04003402B07D17B681B686FF0400245
:103C00001A61786800F0D6F97B681B681B6903F0BD
:103C10002003202B0ED17B681B68DB6803F0200398
:103C2000202B07D17B681B686FF020021A6178682F
:103C300000F0D0FC00BF0837BD4680BD80B586B01F
:103C400000AFF860B9607A600023FB75FB6893F8F9
:103C50003C30012B01D1022388E0FB68012283F86C
:103C60003C207B68002B1BD1FB681868BB68196877
:103C7000BB685A68BB68DB6800F046FAFB681B68E3
:103C80009A69FB681B6822F00C029A61FB681B684A
:103C90009969BB689A68FB681B680A439A6160E08F
:103CA0007B68042B1CD1FB681868BB681968BB686B
:103CB0005A68BB68DB6800F0CAFAFB681B689A693F
:103CC000FB681B6822F440629A61FB681B68996973
:103CD000BB689B681A02FB681B680A439A6140E054
:103CE0007B68082B1BD1FB681868BB681968BB6828
:103CF0005A68BB68DB6800F017FBFB681B68DA6971
:103D0000FB681B6822F00C02DA61FB681B68D9694A
:103D1000BB689A68FB681B680A43DA6121E07B682C
:103D20000C2B1CD1FB681868BB681968BB685A6803
:103D3000BB68DB6800F034FBFB681B68DA69FB6872
:103D40001B6822F44062DA61FB681B68D969BB68B2
:103D50009B681A02FB681B680A43DA6101E00123D1
:103D6000FB75FB68002283F83C20FB7D1846183762
:103D7000BD4680BD80B584B000AF78603960002357
:103D8000FB737B6893F83C30012B01D10223B4E034
:103D90007B68012283F83C207B68022283F83D2067
:103DA0007B681B689B68BB60BB6823F07703BB60C4
:103DB000BB6823F47F43BB607B681B68BA689A606A
:103DC0003B681B68B3F5005F3ED0B3F5005F00F2BF
:103DD0008780B3F5805F00F08680B3F5805F7FD881
:103DE000702B1AD0702B7BD8602B50D0602B77D8DB
:103DF000502B3CD0502B73D8402B58D0402B6FD831
:103E0000302B64D0302B6BD8202B60D0202B67D880
:103E1000002B5CD0102B5AD062E07B6818683B689E
:103E200099683B685A683B68DB6800F011FB7B6867
:103E30001B689B68BB60BB6843F07703BB607B6813
:103E40001B68BA689A604FE07B6818683B6899689D
:103E50003B685A683B68DB6800F0FAFA7B681B68CD
:103E60009A687B681B6842F480429A603CE07B68F9
:103E700018683B6859683B68DB681A4600F0B8F977
:103E80007B681B685021184600F0C7FA2CE07B685D
:103E900018683B6859683B68DB681A4600F014FAFA
:103EA0007B681B686021184600F0B7FA1CE07B684D
:103EB00018683B6859683B68DB681A4600F098F957
:103EC0007B681B684021184600F0A7FA0CE07B686D
:103ED0001A683B681B681946104600F09EFA03E01A
:103EE0000123FB7300E000BF7B68012283F83D20C3
:103EF0007B68002283F83C20FB7B18461037BD46C8
:103F000080BD000080B485B000AF786039600023C8
:103F1000FB603B680C2B31D801A252F823F000BFA4
:103F2000553F00087D3F00087D3F00087D3F0008A9
:103F30005F3F00087D3F00087D3F00087D3F00088F
:103F4000693F00087D3F00087D3F00087D3F000875
:103F5000733F00087B681B685B6BFB600FE07B684E
:103F60001B689B6BFB600AE07B681B68DB6BFB607C
:103F700005E07B681B681B6CFB6000E000BFFB6812
:103F800018461437BD465DF8047B704780B483B093
:103F900000AF786000BF0C37BD465DF8047B70470A
:103FA00080B483B000AF786000BF0C37BD465DF8C9
:103FB000047B704780B483B000AF786000BF0C37DB
:103FC000BD465DF8047B704780B485B000AF786073
:103FD00039607B681B68FB607B68404A934213D062
:103FE0007B68B3F1804F0FD07B683D4A93420BD082
:103FF0007B683C4A934207D07B683B4A934203D09C
:104000007B683A4A934208D1FB6823F07003FB6057
:104010003B685B68FA681343FB607B682F4A9342F6
:104020002BD07B68B3F1804F27D07B682C4A93421A
:1040300023D07B682B4A93421FD07B682A4A934245
:104040001BD07B68294A934217D07B68284A934249
:1040500013D07B68274A93420FD07B68264A93424D
:104060000BD07B68254A934207D07B68244A934251
:1040700003D07B68234A934208D1FB6823F4407342
:10408000FB603B68DB68FA681343FB60FB6823F066
:1040900080023B685B691343FB607B68FA681A60C7
:1040A0003B689A687B68DA623B681A687B689A6248
:1040B0007B680A4A934203D07B680C4A934203D13F
:1040C0003B681A697B681A637B6801225A6100BFEA
:1040D0001437BD465DF8047B704700BF0000014007
:1040E0000004004000080040000C004000040140B3
:1040F00000400140004401400048014000180040D9
:10410000001C00400020004080B487B000AFF86081
:10411000B9607A603B60FB681B6A23F00102FB68B0
:104120001A62FB689B697B61FB681B6A3B61FB68E9
:10413000284A93421BD0FB68B3F1804F17D0FB682D
:10414000254A934213D0FB68244A93420FD0FB6860
:10415000234A93420BD0FB68224A934207D0FB6864
:10416000214A934203D0FB68204A934201D10123A4
:1041700000E00023002B08D07B6923F003037B6160
:104180007A697B6813437B6103E07B6943F0010339
:104190007B617B6923F0F0037B613B681B01DBB231
:1041A0007A6913437B613B6923F00A033B61BB6877
:1041B00003F00A033A6913433B61FB687A699A6129
:1041C000FB683A691A6200BF1C37BD465DF8047B84
:1041D000704700BF0000014000040040000800409C
:1041E000000C004000040140004001400018004065
:1041F00080B487B000AFF860B9607A60FB681B6A72
:104200007B61FB681B6A23F00102FB681A62FB6892
:104210009B693B613B6923F0F0033B617B681B01B9
:104220003A6913433B617B6923F00A037B617A6936
:10423000BB6813437B61FB683A699A61FB687A69E2
:104240001A6200BF1C37BD465DF8047B704780B41E
:1042500087B000AFF860B9607A603B60FB681B6AAA
:1042600023F01002FB681A62FB689B697B61FB68A4
:104270001B6A3B617B6923F440737B617B681B0293
:104280007A6913437B617B6923F470437B613B68EC
:104290001B039BB27A6913437B613B6923F0A00344
:1042A0003B61BB681B0103F0A0033A6913433B6108
:1042B000FB687A699A61FB683A691A6200BF1C3729
:1042C000BD465DF8047B704780B487B000AFF860EE
:1042D000B9607A60FB681B6A23F01002FB681A62FF
:1042E000FB689B697B61FB681B6A3B617B6923F40C
:1042F00070437B617B681B037A6913437B613B6975
:1043000023F0A0033B61BB681B013A6913433B6187
:10431000FB687A699A61FB683A691A6200BF1C37C8
:10432000BD465DF8047B704780B487B000AFF8608D
:10433000B9607A603B60FB681B6A23F48072FB689B
:104340001A62FB68DB697B61FB681B6A3B617B6906
:1043500023F003037B617A697B6813437B617B698C
:1043600023F0F0037B613B681B01DBB27A691343E6
:104370007B613B6923F420633B61BB681B0203F450
:1043800020633A6913433B61FB687A69DA61FB6831
:104390003A691A6200BF1C37BD465DF8047B70475E
:1043A00080B487B000AFF860B9607A603B60FB68AA
:1043B0001B6A23F48052FB681A62FB68DB697B612D
:1043C000FB681B6A3B617B6923F440737B617B68FC
:1043D0001B027A6913437B617B6923F470437B6121
:1043E0003B681B039BB27A6913437B613B6923F4EF
:1043F00020433B61BB681B0303F420433A6913432A
:104400003B61FB687A69DA61FB683A691A6200BF4E
:104410001C37BD465DF8047B704780B485B000AFA3
:10442000786039607B689B68FB60FB6823F07003F1
:10443000FB603A68FB68134343F00703FB607B684B
:10444000FA689A6000BF1437BD465DF8047B704778
:1044500080B487B000AFF860B9607A603B60FB68F9
:104460009B687B617B6923F47F437B613B681A0215
:104470007B681A43BB6813437A6913437B61FB680B
:104480007A699A6000BF1C37BD465DF8047B7047AF
:1044900080B487B000AFF860B9607A60BB6803F0A1
:1044A0001F03012202FA03F37B61FB681A6A7B692E
:1044B000DB431A40FB681A62FB681A6ABB6803F0A8
:1044C0001F03796801FA03F31A43FB681A6200BFFD
:1044D0001C37BD465DF8047B7047000080B485B092
:1044E00000AF786039607B6893F83C30012B01D1D4
:1044F00002235AE07B68012283F83C207B68022279
:1045000083F83D207B681B685B68FB607B681B68E9
:104510009B68BB60FB6823F07003FB603B681B6813
:10452000FA681343FB607B681B68FA685A607B6813
:104530001B68214A934222D07B681B68B3F1804FED
:104540001DD07B681B681D4A934218D07B681B688E
:104550001B4A934213D07B681B681A4A93420ED0C1
:104560007B681B68184A934209D07B681B68174A0E
:10457000934204D07B681B68154A93420CD1BB68F8
:1045800023F08003BB603B685B68BA681343BB6081
:104590007B681B68BA689A607B68012283F83D20BB
:1045A0007B68002283F83C20002318461437BD4660
:1045B0005DF8047B704700BF00000140000400402C
:1045C00000080040000C0040000401400040014091
:1045D0000018004080B483B000AF786000BF0C3793
:1045E000BD465DF8047B704780B483B000AF78604F
:1045F00000BF0C37BD465DF8047B704780B582B0C4
:1046000000AF78607B68002B01D101233FE07B681D
:1046100093F83D30DBB2002B06D17B68002283F893
:104620003C207868FDF762FD7B68242283F83D20FA
:104630007B681B68DA687B681B6822F40052DA60CA
:10464000786800F0DFFD7B681B681A697B681B686F
:1046500022F490421A617B681B685A697B681B6868
:1046600022F02A025A617B681B68DA687B681B6843
:1046700042F40052DA607B6800221A647B682022D0
:1046800083F83D207B68202283F83E2000231846D3
:104690000837BD4680BD80B58AB002AFF860B9600A
:1046A0003B601346FB8000237B61FB6893F83D3041
:1046B000DBB2202B7CD1BB68002B02D0FB88002B07
:1046C00001D1012375E0FB6893F83C30012B01D147
:1046D00002236EE0FB68012283F83C20FB68002285
:1046E0001A64FB68212283F83D20FDF76FFE786194
:1046F000FB68FA889A84FB68FA88DA84FB689B680E
:10470000B3F5805F08D1FB681B69002B04D100233F
:10471000FB61BB68BB6103E0BB68FB610023BB615D
:10472000FB68002283F83C202AE03B6800937B6909
:1047300000228021F86800F01FFB0346002B01D007
:10474000032336E0FB69002B0BD1BB691B881A469B
:10475000FB681B68C2F308025A60BB690233BB6185
:1047600007E0FB691A78FB681B685A60FB69013334
:10477000FB61FB68DB8C9BB2013B9AB2FB68DA847D
:10478000FB68DB8C9BB2002BCFD13B6800937B692D
:1047900000224021F86800F0EFFA0346002B01D018
:1047A000032306E0FB68202283F83D20002300E07D
:1047B000022318462037BD4680BD80B584B000AFC7
:1047C000F860B9601346FB80FB6893F83E30DBB2BB
:1047D000202B1DD1BB68002B02D0FB88002B01D100
:1047E000012316E0FB6893F83C30012B01D1022332
:1047F0000FE0FB68012283F83C20FB6800221A636B
:10480000FB881A46B968F86800F024FB034600E00C
:10481000022318461037BD4680BD000080B5BAB0EF
:1048200000AF78607B681B681B68C7F8E4307B6862
:104830001B68DB68C7F8E0307B681B685B69C7F8FA
:10484000DC300023C7F8D8300023C7F8D430D7F8BD
:10485000E43003F00F03C7F8D830D7F8D830002B76
:104860000FD1D7F8E43003F02003002B09D0D7F89C
:10487000E03003F02003002B03D0786800F007FC41
:1048800056E2D7F8D830002B00F0DE80D7F8DC30C5
:1048900003F00103002B06D1D7F8E03003F4907346
:1048A000002B00F0D180D7F8E43003F00103002B97
:1048B0000BD0D7F8E03003F48073002B05D07B6871
:1048C0001B6C43F001027B681A64D7F8E43003F0F4
:1048D0000403002B0BD0D7F8DC3003F00103002BCE
:1048E00005D07B681B6C43F002027B681A64D7F822
:1048F000E43003F00203002B0BD0D7F8DC3003F0D8
:104900000103002B05D07B681B6C43F004027B681D
:104910001A64D7F8E43003F00803002B11D0D7F85D
:10492000E03003F02003002B05D1D7F8DC3003F092
:104930000103002B05D07B681B6C43F008027B68E9
:104940001A647B681B6C002B00F0ED81D7F8E43013
:1049500003F02003002B08D0D7F8E03003F0200349
:10496000002B02D0786800F092FB7B681B685B69C3
:1049700003F04003402B0CBF01230023DBB2C7F838
:10498000D4307B681B6C03F00803002B03D1D7F8ED
:10499000D430002B4FD0786800F09AFA7B681B68FF
:1049A0005B6903F04003402B41D17B681B681433E3
:1049B000C7F89C30D7F89C3053E8003FC7F89830D0
:1049C000D7F8983023F04003C7F8D0307B681B68D5
:1049D0001433D7F8D020C7F8A820C7F8A430D7F8E8
:1049E000A410D7F8A82041E80023C7F8A030D7F8D2
:1049F000A030002BD9D17B689B6B002B13D07B6838
:104A00009B6B7D4A1A657B689B6B1846FDF78BFF95
:104A10000346002B16D07B689B6B1B6D7A68926BEC
:104A2000104698470EE0786800F090F90AE0786840
:104A300000F08CF906E0786800F088F97B680022C5
:104A40001A6470E100BF6EE17B681B6B012B40F0C4
:104A50004A81D7F8E43003F01003002B00F04381C3
:104A6000D7F8E03003F01003002B00F03C81002366
:104A7000BB607B681B681B68BB607B681B685B68EE
:104A8000BB60BB687B681B685B6903F04003402B1D
:104A900040F0B4807B689B6B1B685B68A7F8BE30F6
:104AA000B7F8BE30002B00F040817B689B8DB7F8D3
:104AB000BE209A4280F039817B68B7F8BE20DA8543
:104AC0007B689B6BDB69B3F5807F00F088807B6837
:104AD0001B680C33C7F88830D7F8883053E8003F9C
:104AE000C7F88430D7F8843023F48073C7F8B8301F
:104AF0007B681B680C33D7F8B820C7F89420C7F838
:104B00009030D7F89010D7F8942041E80023C7F8E8
:104B10008C30D7F88C30002BD9D17B681B681433CC
:104B20007B677B6F53E8003F3B673B6F23F00103DC
:104B3000C7F8B4307B681B681433D7F8B420C7F8C3
:104B40008020FB67F96FD7F8802041E80023BB671E
:104B5000BB6F002BE1D17B681B6814333B663B6E57
:104B600053E8003FFB65FB6D23F04003C7F8B0300E
:104B70007B681B681433D7F8B020FA66BB66B96E41
:104B8000FA6E41E800237B667B6E002BE3D17B68E5
:104B9000202283F83E207B6800221A637B681B6812
:104BA0000C33FB64FB6C53E8003FBB64BB6C23F02D
:104BB0001003C7F8AC307B681B680C33D7F8AC2007
:104BC000BA657B65796DBA6D41E800233B653B6D45
:104BD000002BE3D17B689B6B1846FDF734FE7B68A6
:104BE0009A8D7B68DB8D9BB2D31A9BB2194678688D
:104BF00000F0B6F899E000BF974F00087B689A8DE7
:104C00007B68DB8D9BB2D31AA7F8CE307B68DB8D37
:104C10009BB2002B00F08B80B7F8CE30002B00F059
:104C200086807B681B680C33BB63BB6B53E8003F1B
:104C30007B637B6B23F49073C7F8C8307B681B6879
:104C40000C33D7F8C8207A643B64396C7A6C41E83D
:104C50000023FB63FB6B002BE3D17B681B681433E1
:104C60007B627B6A53E8003F3B623B6A23F00103AF
:104C7000C7F8C4307B681B681433D7F8C4203A6384
:104C8000FB62F96A3A6B41E80023BB62BB6A002B06
:104C9000E3D17B68202283F83E207B6800221A63E0
:104CA0007B681B680C333B613B6953E8003FFB604A
:104CB000FB6823F01003C7F8C0307B681B680C3317
:104CC000D7F8C020FA61BB61B969FA6941E80023ED
:104CD0007B617B69002BE3D1B7F8CE301946786849
:104CE00000F03EF823E0D7F8E43003F08003002B17
:104CF00009D0D7F8E03003F08003002B03D07868A8
:104D000000F05DF914E0D7F8E43003F04003002B25
:104D10000ED0D7F8E03003F04003002B08D07868BD
:104D200000F09DF904E000BF02E000BF00E000BF1A
:104D3000E837BD4680BD00BF80B483B000AF786067
:104D400000BF0C37BD465DF8047B704780B483B06C
:104D500000AF786000BF0C37BD465DF8047B70473C
:104D600080B483B000AF78600B467B8000BF0C3707
:104D7000BD465DF8047B704780B590B000AFF86029
:104D8000B9603B601346FB7150E0BB6CB3F1FF3F71
:104D90004CD0BB6C002B07D0FDF718FB02463B68DC
:104DA000D31ABA6C9A4241D2FB681B680C33BB62BF
:104DB000BB6A53E8003F7B627B6A23F4D073FB63DA
:104DC000FB681B680C33FA6B7A633B63396B7A6B55
:104DD00041E80023FB62FB6A002BE5D1FB681B68FE
:104DE00014337B617B6953E8003F3B613B6923F0EF
:104DF0000103BB63FB681B681433BA6B3A62FB6147
:104E0000F9693A6A41E80023BB61BB69002BE5D12F
:104E1000FB68202283F83D20FB68202283F83E2097
:104E2000FB68002283F83C2003230FE0FB681B682B
:104E30001A68BB681340BA689A420CBF012300236A
:104E4000DBB21A46FB799A429FD0002318464037BE
:104E5000BD4680BD80B485B000AFF860B960134630
:104E6000FB80FB68BA689A62FB68FA889A85FB68DF
:104E7000FA88DA85FB6800221A64FB68222283F82C
:104E80003E20FB68002283F83C20FB681B69002B56
:104E900007D0FB681B68DA68FB681B6842F4807205
:104EA000DA60FB681B685A69FB681B6842F0010204
:104EB0005A61FB681B68DA68FB681B6842F02002D5
:104EC000DA60002318461437BD465DF8047B70474E
:104ED00080B495B000AF78607B681B680C337B634F
:104EE0007B6B53E8003F3B633B6B23F49073FB64A5
:104EF0007B681B680C33FA6C3A64FB63F96B3A6CA1
:104F000041E80023BB63BB6B002BE5D17B681B68CA
:104F100014333B623B6A53E8003FFB61FB6923F0BB
:104F20000103BB647B681B681433BA6CFA62BB6212
:104F3000B96AFA6A41E800237B627B6A002BE5D1FB
:104F40007B681B6B012B19D17B681B680C33FB60E2
:104F5000FB6853E8003FBB60BB6823F010037B6431
:104F60007B681B680C337A6CBA617B617969BA69BA
:104F700041E800233B613B69002BE5D17B6820229F
:104F800083F83E207B6800221A6300BF5437BD4679
:104F90005DF8047B704780B584B000AF78607B68B3
:104FA0009B6BFB60FB680022DA85FB680022DA84D9
:104FB000F868FFF7CBFE00BF1037BD4680BD80B458
:104FC00085B000AF78607B6893F83D30DBB2212B71
:104FD0003ED17B689B68B3F5805F14D17B681B6909
:104FE000002B10D17B681B6AFB60FB681B881A468C
:104FF0007B681B68C2F308025A607B681B6A9A1CB4
:105000007B681A6208E07B681B6A591C7A68116227
:105010001A787B681B685A607B68DB8C9BB2013B0B
:105020009BB27A681946D184002B0FD17B681B682C
:10503000DA687B681B6822F08002DA607B681B6894
:10504000DA687B681B6842F04002DA60002300E007
:10505000022318461437BD465DF8047B704780B5BF
:1050600082B000AF78607B681B68DA687B681B6879
:1050700022F04002DA607B68202283F83D207868C5
:10508000FFF75AFE002318460837BD4680BD80B59D
:105090008CB000AF78607B6893F83E30DBB2222B97
:1050A00040F0AB807B689B68B3F5805F17D17B686D
:1050B0001B69002B13D10023FB627B689B6ABB62D8
:1050C0007B681B685B689BB2C3F308039AB2BB6A38
:1050D0001A807B689B6A9A1C7B689A6226E07B68D0
:1050E0009B6AFB620023BB627B689B68B3F5805FB1
:1050F00007D07B689B68002B0AD17B681B69002B5B
:1051000006D17B681B685B68DAB2FB6A1A7008E03C
:105110007B681B685B68DBB203F07F03DAB2FB6A73
:105120001A707B689B6A5A1C7B689A627B68DB8D6D
:105130009BB2013B9BB27A681946D185002B5AD1AC
:105140007B681B68DA687B681B6822F02002DA60E3
:105150007B681B68DA687B681B6822F48072DA60FF
:105160007B681B685A697B681B6822F001025A61E0
:105170007B68202283F83E207B681B6B012B35D196
:105180007B6800221A637B681B680C337B617B6938
:1051900053E8003F3B613B6923F010037B627B686F
:1051A0001B680C337A6A3A62FB61F9693A6A41E832
:1051B0000023BB61BB69002BE5D17B681B681B68C2
:1051C00003F01003102B0AD10023FB607B681B68DF
:1051D0001B68FB607B681B685B68FB60FB687B6827
:1051E0009B8D19467868FFF7BBFD02E07868FCF7F5
:1051F00057F9002302E0002300E00223184630376D
:10520000BD4680BD2DE9B04FC0B000AFC7F8F40077
:10521000D7F8F4301B681B6923F44050D7F8F430FA
:10522000D968D7F8F4301A6840EA01031361D7F857
:10523000F4309A68D7F8F4301B691A43D7F8F43081
:105240005B691A43D7F8F430DB691343C7F8F830C9
:10525000D7F8F4301B68DB6823F4164121F00C0109
:10526000D7F8F4301A68D7F8F8300B43D360D7F882
:10527000F4301B685B6923F44070D7F8F430996907
:10528000D7F8F4301A6840EA01035361D7F8F430D4
:105290001A688F4B9A4205D0D7F8F4301A688D4BB4
:1052A0009A4204D1FEF776F9C7F8FC0003E0FEF756
:1052B0005DF9C7F8FC00D7F8F430DB69B3F5004FAF
:1052C00040F00C81D7F8FC300022C7F8E830C7F86E
:1052D000EC20D7E93A4522462B469118B9655B4147
:1052E000FB65D7E91623214612EB0108294643EB5B
:1052F00001094FF000024FF000034FEAC90343EAEF
:1053000058734FEAC80290469946234618EB0303A8
:10531000C7F8E0302B4649EB0303C7F8E430D7F871
:10532000F4305B680022C7F8D830C7F8DC20D7E932
:1053300036120B46DB183B65134642EB03037B65D5
:10534000D7E91423D7E93801FBF710FC02460B46D6
:10535000614BA3FB02235B091C01D7F8FC30002240
:10536000C7F8D030C7F8D420D7E9348942464B4635
:105370009118B9645B41FB64D7E91223414612EBF3
:10538000010A494643EB010B4FF000024FF00003C6
:105390004FEACB0343EA5A734FEACA0292469B464E
:1053A00043461AEB0303C7F8C8304B464BEB0303E5
:1053B000C7F8CC30D7F8F4305B680022C7F8C030AB
:1053C000C7F8C420D7E930120B46DB183B641346FC
:1053D00042EB03037B64D7E91023D7E93201FBF7E3
:1053E000C5FB02460B4611463B4BA3FB01235B0961
:1053F000642202FB03F3CB1ADB0003F13202364BCB
:10540000A3FB02235B095B0003F4F8731C44D7F889
:10541000FC300022C7F8B830C7F8BC20D7E92E8985
:1054200042464B469118B9635B41FB63D7E90E23B3
:1054300041465118396349464B417B634FF00002A6
:105440004FF00003D7E90CAB5946CB00514643EA75
:1054500051735146CA0010461946034642469B18EE
:10546000C7F8B0304B460A4642EB0303C7F8B430E6
:10547000D7F8F4305B680022C7F8A830C7F8AC2032
:10548000D7E92A120B46DB18BB62134642EB030333
:10549000FB62D7E90A23D7E92C01FBF767FB024639
:1054A0000B460D4BA3FB02135B09642101FB03F3C5
:1054B000D31ADB003233084AA2FB03235B0903F053
:1054C0000702D7F8F4301B6822449A6005E100BF58
:1054D00000100140001401401F85EB51D7F8FC304B
:1054E0000022C7F8A030C7F8A420D7E9288942468F
:1054F0004B46911839625B417B62D7E908234146EC
:105500005418494643EB01054FF000024FF00003E9
:10551000EB0043EA5473E20014461D464346E31889
:10552000C7F898304B4645EB0303C7F89C30D7F8D3
:10553000F4305B680022C7F89030C7F894204FF031
:1055400000024FF00003D7E9244529468B0021468D
:1055500043EA917321468A00D7E92601FBF706FB4F
:1055600002460B46604BA3FB02235B091C01D7F8E4
:10557000FC300022C7F88830C7F88C20D7E9228990
:1055800042464B469118B9615B41FB61D7E906235E
:1055900041465118396149464B417B614FF0000249
:1055A0004FF00003D7E904AB5946CB00514643EA1C
:1055B00051735146CA0010461946034642469B188D
:1055C000C7F880304B460A4642EB0303C7F88430E5
:1055D000D7F8F4305B680022BB67FA674FF000022F
:1055E0004FF00003D7E91E8949468B00414643EA44
:1055F000917341468A00D7E92001FBF7B7FA0246CA
:105600000B46394BA3FB02135B09642101FB03F337
:10561000D31A1B013233344AA2FB03235B0903F084
:10562000F0031C44D7F8FC3000223B677A67D7E9C7
:105630001C8942464B469118B9605B41FB60D7E933
:10564000022341465118396049464B417B604FF077
:1056500000024FF00003D7E900AB5946CB0051469A
:1056600043EA51735146CA00104619460346424662
:105670009B18BB664B460A4642EB0303FB66D7F812
:10568000F4305B6800223B667A664FF000024FF010
:105690000003D7E9188949468B00414643EA9173D4
:1056A00041468A00D7E91A01FBF760FA02460B4629
:1056B0000D4BA3FB02135B09642101FB03F3D31A17
:1056C0001B013233084AA2FB03235B0903F00F02DC
:1056D000D7F8F4301B6822449A6000BF07F5807742
:1056E000BD46BDE8B08F00BF1F85EB510A220021E7
:1056F00000F0D4B8014B1868704700BF24000020A8
:1057000070B50D4D0D4C641BA4100026A64209D1A6
:105710000B4D0C4C00F01AFD641BA4100026A64291
:1057200005D170BD55F8043B98470136EEE755F8B2
:10573000043B98470136F2E7C4620008C4620008DF
:10574000C4620008C862000802440346934200D1C4
:10575000704703F8011BF9E70EB400B59CB01DAB10
:10576000029006906FF000410948079104910949A1
:1057700053F8042B05910068019302A900F0F4F896
:10578000029B00221A701CB05DF804EB03B0704756
:10579000240000200802FFFF012B2DE9F04701D073
:1057A000242B06D9FFF7A6FF162303600020BDE8CF
:1057B000F087DFF8E4C00D462E4615F8014B14F8CB
:1057C0000C7017F00807F7D12D2C32D12C78012757
:1057D000B51C002B5BD0102B09D1302C07D12C78B5
:1057E00004F0DF04582C4DD16C781023023507F1FA
:1057F000004808F1FF384FF0000CB8FBF3F966469B
:1058000003FB198AA4F1300EBEF1090F16D87446B5
:10581000A34224DDBCF1000F1EDBB1451CD301D136
:10582000A24519DB06FB03464FF0010C15F8014BAE
:10583000E8E72B2C04BF2C78B51CCAE7A4F1410E75
:10584000BEF1190F01D8373CE2E7A4F1610EBEF1B9
:10585000190F04D8573CDBE74FF0FF3CE6E7BCF1FB
:10586000000F05DA22230360464642B930469EE720
:1058700007B17642002AF9D0BCF1000F00D0691EB2
:105880001160F3E73024002BB1D10823AFE7302CAF
:10589000A5D00A23ABE700BF8961000813460A467A
:1058A000014602480068FFF777BF00BF24000020D0
:1058B0002DE9F0478E689E4282460C4690461F4670
:1058C00038D88A8912F4906F32D025680969A5EB1F
:1058D0000109656905EB450505EBD57501334B44B9
:1058E0006D109D4238BF1D46530531D5294600F045
:1058F00063FB064650B90C23CAF80030A38943F075
:105900004003A3814FF0FF30BDE8F08721694A468C
:1059100000F0BEFAA38923F4906343F08003A381CF
:10592000266165614E44A5EB09052660A5603E46EB
:10593000BE4200D93E4620683246414600F0B6FAE3
:10594000A3689B1BA3602368334423600020DBE72C
:105950002A4600F0A5FB06460028E1D12169504601
:1059600000F0BEFAC7E700002DE9F04F98468B899A
:105970001B069DB007460D4614460ED50B6963B94C
:10598000402100F019FB2860286120B90C233B60FE
:105990004FF0FF30D1E040236B61002309932023B7
:1059A0008DF82930CDF80C803023DFF8A8818DF8F0
:1059B0002A304FF0010923469A4613F8012B0AB109
:1059C000252AF9D1BAEB040B0BD05B4622462946B7
:1059D0003846FFF76DFF013000F0AA80099A5A445B
:1059E00009929AF80030002B00F0A28000234FF0BB
:1059F000FF32CDE905230AF1010A049307938DF8DC
:105A000053301A935446052214F8011B5148FAF7F3
:105A1000DFFB049AD8B9D00644BF20238DF8533059
:105A2000110744BF2B238DF853309AF800302A2BEE
:105A300015D0079A544600204FF00A0C214611F861
:105A4000013B303B092B4ED9B0B1079214E0A0EBDB
:105A5000080309FA03F313430493A246D2E7039B16
:105A6000191D1B680391002BBBBF5B4242F0020271
:105A700007930793B8BF049223782E2B0CD1637839
:105A80002A2B35D1039B1A1D1B680392002BB8BF2C
:105A90004FF0FF3302340593DFF8C8A021780322CA
:105AA0005046FAF795FB40B14023A0EB0A0003FAF9
:105AB00000F0049B03430134049314F8011B2648AF
:105AC0008DF828100622FAF783FB002838D0234BE4
:105AD0001BBB039B073323F0070308330393099B86
